:100000000C945D000C9485000C9485000C94850084
:100010000C9485000C9485000C9485000C9485004C
:100020000C9485000C9485000C9485000C94650656
:100030000C9485000C9485000C9485000C9485002C
:100040000C941B060C9485000C94E9050C94C305D4
:100050000C9485000C9485000C9485000C9485000C
:100060000C9485000C9485000000000024002700FB
:100070002A0000000000250028002B0004040404CE
:100080000404040402020202020203030303030342
:10009000010204081020408001020408102001021F
:1000A00004081020000000080002010000030407FB
:1000B0000000000000000000210711241FBECFEF48
:1000C000D8E0DEBFCDBF11E0A0E0B1E0E6E4F9E1A9
:1000D00002C005900D92A235B107D9F722E0A2E542
:1000E000B1E001C01D92A534B207E1F710E0CDE503
:1000F000D0E004C02197FE010E949B0CCC35D107B3
:10010000C9F70E94AB070C94A10C0C940000CF928D
:10011000DF92EF92FF92DC01A03282E0B807D4F5C3
:10012000A53BB10514F0A4EBB0E040912B0228E808
:1001300030E0241B310947FD3395220F331F220F76
:10014000331F6901330FEE08FF0840912C0228E5A8
:1001500032E0241B310947FD3395220F331F220F54
:10016000331F032E000C440B550B2C193D094E096F
:100170005F09B7FF02C0B0E0A0E00E941A0A24EBBA
:1001800030E040E050E00E94F009C20ED31EE41EB1
:10019000F51ED601E0912A02EC3080F520912B0269
:1001A00088E890E0821B910927FD9395880F991F9D
:1001B000880F991FA817B90784F020912C0288E5B1
:1001C00092E0821B910927FD9395880F991F880F54
:1001D000991FA817B9070CF4CD010297880F991F32
:1001E0004FB7F8942E2F30E0F901EE0FFF1FE20F0A
:1001F000F31FEB5FFD4F928381834FBFFF90EF9022
:10020000DF90CF900895AF92BF92CF92DF92EF929E
:10021000FF920F931F93CF93DF936C017B018B01B0
:10022000040F151FEB015E01AE18BF08C017D10700
:1002300059F06991D601ED91FC910190F081E02D8A
:10024000C6010995892B79F7C501DF91CF911F91DF
:100250000F91FF90EF90DF90CF90BF90AF900895F7
:10026000FC01538D448D252F30E0842F90E0821BBC
:10027000930B541710F0CF96089501970895FC0141
:10028000918D828D981761F0A28DAE0FBF2FB11D99
:100290005D968C91928D9F5F9F73928F90E00895F1
:1002A0008FEF9FEF0895FC01918D828D981731F0AB
:1002B000828DE80FF11D858D90E008958FEF9FEFFF
:1002C0000895FC01918D228D892F90E0805C9F4FD5
:1002D000821B91098F739927089588E691E00E9407
:1002E000610121E0892B09F420E0822F089580E04C
:1002F00090E0892B29F00E946D0181110C9400007F
:100300000895FC01A48DA80FB92FB11DA35ABF4FAA
:100310002C91848D90E001968F739927848FA68904
:10032000B7892C93A089B1898C91837080648C9358
:10033000938D848D981306C00288F389E02D808107
:100340008F7D80830895EF92FF920F931F93CF9339
:10035000DF93EC0181E0888F9B8D8C8D98131AC000
:10036000E889F989808185FF15C09FB7F894EE89E7
:10037000FF896083E889F989808183708064808344
:100380009FBF81E090E0DF91CF911F910F91FF908F
:10039000EF900895F62E0B8D10E00F5F1F4F0F7337
:1003A0001127E02E8C8D8E110CC00FB607FCFACFF2
:1003B000E889F989808185FFF5CFCE010E9481010E
:1003C000F1CFEB8DEC0FFD2FF11DE35AFF4FF082C3
:1003D0009FB7F8940B8FEA89FB8980818062CFCF29
:1003E000CF93DF93EC01888D8823B9F0AA89BB896C
:1003F000E889F9898C9185FD03C0808186FD0DC057
:100400000FB607FCF7CF8C9185FFF2CF808185FF77
:10041000EDCFCE010E948101E9CFDF91CF91089508
:1004200090E0FC01EC55FF4F2491FC01E057FF4F99
:100430003491FC01E458FF4FE491EE23C9F02223EC
:1004400039F0233001F1A8F4213019F1223029F1DB
:10045000F0E0EE0FFF1FEE58FF4FA591B4918FB75C
:10046000F894EC91611126C030953E233C938FBFE8
:1004700008952730A9F02830C9F0243049F7809139
:1004800080008F7D03C0809180008F7780938000F3
:10049000DFCF84B58F7784BDDBCF84B58F7DFBCF75
:1004A0008091B0008F778093B000D2CF8091B00060
:1004B0008F7DF9CF3E2BDACFCF93DF9390E0FC0115
:1004C000E057FF4F249184589F4FFC01849188236B
:1004D000D1F090E0880F991FFC01E859FF4FA591DA
:1004E000B491FC01EE58FF4FC591D49161110EC03B
:1004F0009FB7F8948C91E22FE0958E238C932881FE
:10050000E223E8839FBFDF91CF9108958FB7F894DE
:10051000EC91E22BEC938FBFF6CF8E5080648093EA
:100520007C0080917A00806480937A0080917A00C8
:1005300086FDFCCF809178009091790008953FB7B7
:10054000F8948091580190915901A0915A01B0916D
:100550005B0126B5A89B05C02F3F19F00196A11D90
:10056000B11D3FBFBA2FA92F982F8827BC01CD01FD
:10057000620F711D811D911D42E0660F771F881F5C
:10058000991F4A95D1F708958F929F92AF92BF928B
:10059000CF92DF92EF92FF924B015C010E949F028B
:1005A0006B017C010E949F026C197D098E099F09D5
:1005B000683E734081059105A8F321E0821A9108F5
:1005C000A108B10888EEC80E83E0D81EE11CF11C1A
:1005D00081149104A104B10429F7FF90EF90DF90FA
:1005E000CF90BF90AF909F908F900895089590E026
:1005F00080E00895CF93DF93EC0160E08E810E944C
:10060000100261E08E810E94100260E08E810E94E3
:1006100010028BE891E00197F1F7DF91CF910895F7
:10062000CF92DF92EF92FF920F931F93CF93DF93BE
:100630006C017C0187E0E80EF11CD0E0C0E0062FE1
:1006400010E0B8010C2E02C0759567950A94E2F788
:100650006170F70181917F010E9410022196C430E0
:10066000D10579F7C601DF91CF911F910F91FF90CE
:10067000EF90DF90CF900C94FA02CF92DF92EF923E
:10068000FF920F931F93CF93DF93EC01F62E642F0D
:100690008C810E9410028D818F3F19F060E00E94D2
:1006A00010020F2D10E08F8584FF25C06E0187E0BA
:1006B000C80ED11CF12CE12CB8010E2C02C075958E
:1006C00067950A94E2F76170F60181916F010E94CB
:1006D0001002FFEFEF1AFF0A88E0E816F10461F755
:1006E000CE01DF91CF911F910F91FF90EF90DF909E
:1006F000CF900C94FA02B80184E0759567958A95BD
:10070000E1F7CE010E9410036F2DCE01DF91CF9152
:100710001F910F91FF90EF90DF90CF900C941003FA
:1007200040E0682F8DE292E00C943D03CF93DF937D
:10073000823029F490913C02986090933C0280931F
:1007400040021092410280E48093420280E1809353
:10075000430280E58093440261E0809131020E946F
:100760005C02809132028F3F19F061E00E945C02CE
:1007700061E0809133020E945C02CDE2D2E09E01F2
:100780002D52324080913C0284FD0BC084E090E009
:1007900021962817390744F461E08E810E945C029B
:1007A000EECF88E090E0F4CF8BE39DE00197F1F786
:1007B00060E0809131020E94100260E0809133027B
:1007C0000E941002809132028F3F19F060E00E9477
:1007D000100280913C0284FD39C063E08DE292E01A
:1007E0000E941003CBE4D6E4CE010197F1F763E059
:1007F0008DE292E00E9410032197F1F763E08DE211
:1008000092E00E94100383E592E00197F1F762E025
:100810008DE292E00E94100380913C0280620E946F
:10082000900384E080933D028CE00E94900381E07D
:100830000E9490038BE39FE10197F1F782E08093A0
:100840003E0286E0DF91CF910C94900380620E947B
:1008500090038BE496E40197F1F780913C0280626B
:100860000E94900383E592E00197F1F780913C02AA
:1008700080620E949003D0CF41E00E943D0381E05E
:1008800090E00895FB0101900020E9F73197AF0156
:10089000461B570BDC01ED91FC910280F381E02DAA
:1008A00009948F929F92AF92BF92EF92FF920F9313
:1008B0001F93CF93DF93CDB7DEB7A1970FB6F89410
:1008C000DEBF0FBECDBF7C01FA01CB0119A22230E1
:1008D00008F42AE08E010F5D1F4F822E912CB12C5F
:1008E000A12CBF01A50194010E94220AF901CA01AD
:1008F0006A300CF5605DD8016E938D01232B242B9B
:10090000252B79F790E080E0109721F0BD01C70119
:100910000E944204A1960FB6F894DEBF0FBECDBF71
:10092000DF91CF911F910F91FF90EF90BF90AF900B
:100930009F908F900895695CDECFCF92DF92EF9207
:10094000FF92CF93DF936C01990FEE08FF08F7FE3B
:1009500023C06DE288E691E00E94A301EC014427E8
:100960005527BA014C195D096E097F092AE088E60E
:1009700091E00E945104C80FD91F60E271E088E63F
:1009800091E00E9442048C0F9D1FDF91CF91FF9058
:10099000EF90DF90CF9008952AE0B701A60188E696
:1009A00091E00E945104EC01E8CF2F923F924F92C8
:1009B0005F926F927F928F929F92AF92BF92CF92EF
:1009C000DF92EF92FF921F93CF93DF93EC016A01C6
:1009D0007B01722EAB019601CB01B6010E948A0CFD
:1009E00063E271E0811126C046015701E894B7F82F
:1009F0002FEF3FEF4FE75FE7C501B4010E948A0C7C
:100A000081110CC02FEF3FEF4FE75FE7C501B40145
:100A10000E94C00A67E271E0181664F02FEF3FEF02
:100A20004FE75FE4C701B6010E94180C1816B4F432
:100A30006BE271E0CE01DF91CF911F91FF90EF90BB
:100A4000DF90CF90BF90AF909F908F907F906F90EE
:100A50005F904F903F902F900C9442042FEF3FEF08
:100A60004FE75FECC701B6010E94C00A87FDE0CFE7
:100A700020E030E0A901C701B6010E94C00A312C74
:100A8000212C87FF0DC0E881F9810190F081E02DD4
:100A90006DE2CE0109951C01F7FAF094F7F8F09495
:100AA00010E060E070E080E09FE3711641F020E02C
:100AB00030E040E251E40E94C50A1F5FF6CFA70173
:100AC00096010E94540A2B013C010E94370B4B01F6
:100AD0005C012AE0BC01A401CE010E9451047C010A
:100AE000E20CF31C1123E1F1C501B4010E94660B75
:100AF0009B01AC01C301B2010E94530A4B015C018E
:100B0000E881F9810190F081E02D6EE2CE01099536
:100B1000E80EF91E115020F120E030E040E251E4EF
:100B2000C501B4010E941D0C2B013C010E94370B32
:100B30004B01B12CA12C2AE0B501A401CE010E94E9
:100B40005104E80EF91EC501B4010E94660B9B0119
:100B5000AC01C301B2010E94530A4B015C01DACF20
:100B6000C701DF91CF911F91FF90EF90DF90CF9061
:100B7000BF90AF909F908F907F906F905F904F90BD
:100B80003F902F9008951F920F920FB60F9211244D
:100B90002F933F934F935F936F937F938F939F9385
:100BA000AF93BF93EF93FF9388E691E00E9481019A
:100BB000FF91EF91BF91AF919F918F917F916F9135
:100BC0005F914F913F912F910F900FBE0F901F900B
:100BD00018951F920F920FB60F9211242F938F9397
:100BE0009F93EF93FF93E0917801F09179018081D9
:100BF000E0917E01F0917F0182FD1BC09081809188
:100C000081018F5F8F7320918201821741F0E09103
:100C10008101F0E0E859FE4F958F80938101FF91AB
:100C2000EF919F918F912F910F900FBE0F901F907A
:100C300018958081F4CF1F920F920FB60F92112456
:100C40002F933F938F939F93AF93BF9380915401C2
:100C500090915501A0915601B091570130915301E7
:100C600023E0230F2D3758F50196A11DB11D2093C8
:100C700053018093540190935501A0935601B09372
:100C800057018091580190915901A0915A01B0915A
:100C90005B010196A11DB11D8093580190935901EC
:100CA000A0935A01B0935B01BF91AF919F918F9137
:100CB0003F912F910F900FBE0F901F90189526E82F
:100CC000230F0296A11DB11DD2CF1F920F920FB616
:100CD0000F9211242F933F934F935F936F937F93C2
:100CE0008F939F93AF93BF93CF93DF93EF93FF9334
:100CF00080915201C0912902D0E087FF24C0109258
:100D0000850010928400809152018F5F8093520180
:100D100080915201082E000C990B8C179D0724F42A
:100D2000809152018C30C4F18091840090918500B3
:100D3000049680349C4908F47AC080918400909194
:100D40008500049676C080915201082E000C990B04
:100D50008C179D07C4F6E09152018E2FEE0F990B70
:100D6000FC01EE0FFF1FE80FF91FEB5FFD4F8081C5
:100D700086FFC9CFE09152018E2FEE0F990BFC0137
:100D8000EE0FFF1FE80FF91FEB5FFD4F808160E062
:100D90008F730E941002B7CF20918400309185009C
:100DA000E09152018E2FEE0F990BFC01EE0FFF1F09
:100DB000E80FF91FEB5FFD4F81819281820F931F36
:100DC0009093890080938800E09152018E2FEE0F5E
:100DD000990BFC01EE0FFF1FE80FF91FEB5FFD4FB2
:100DE000808186FF11C0E09152018E2FEE0F990B8A
:100DF000FC01EE0FFF1FE80FF91FEB5FFD4F808135
:100E000061E08F730E941002FF91EF91DF91CF910B
:100E1000BF91AF919F918F917F916F915F914F9112
:100E20003F912F910F900FBE0F901F90189580E467
:100E30009CE990938900809388008FEF8093520102
:100E4000E3CFCF9310926B0110926A0188EE93E08A
:100E5000A0E0B0E080936C0190936D01A0936E01CF
:100E6000B0936F0186E091E09093690180936801EF
:100E700085EC90E0909375018093740184EC90E090
:100E8000909377018093760180EC90E090937901C4
:100E90008093780181EC90E090937B0180937A01BC
:100EA00082EC90E090937D0180937C0186EC90E051
:100EB00090937F0180937E011092810110928201B4
:100EC00010928301109284011092300210922F022E
:100ED00088E191E090932E0280932D0282E080932E
:100EE0003102CFEFC093320283E08093330284E07B
:100EF0008093340285E08093350286E08093360249
:100F000087E08093370210923802109239021092D3
:100F10003A0210923B0210923C0281E00E9496033A
:100F2000809129028C30A0F491E0980F90932902CF
:100F300080932A0290E0FC01EE0FFF1FE80FF91FDB
:100F4000EB5FFD4F88EB9BE092838183CF91089507
:100F5000C0932A02FBCF789484B5826084BD84B5A7
:100F6000816084BD85B5826085BD85B5816085BDA4
:100F700080916E00816080936E001092810080915C
:100F800081008260809381008091810081608093E4
:100F90008100809180008160809380008091B10009
:100FA00084608093B1008091B00081608093B00034
:100FB00080917A00846080937A0080917A008260C8
:100FC00080937A0080917A00816080937A0080918A
:100FD0007A00806880937A001092C10082E00E94BB
:100FE0009603E1E0809140028111E0E0E195F0E0BC
:100FF000E35DFD4F848980680E949003E091780151
:10100000F091790182E08083E0917401F0917501A3
:101010001082E0917601F09177018FEC808310923D
:101020008001E0917C01F0917D0186E08083E09178
:101030007A01F0917B01808180618083E0917A0167
:10104000F0917B01808188608083E0917A01F0914A
:101050007B01808180688083E0917A01F0917B013F
:1010600080818F7D808380912A028C3008F051C06E
:1010700061E089E00E945C0280912A02282F30E022
:10108000F901EE0FFF1FE20FF31FEB5FFD4F9081A1
:10109000907C9960908310922B0210922C022CE08D
:1010A000622F0E948F0C829FB001112430E020E05B
:1010B000AB01420F531FFA01EE0FFF1FE40FF51FA4
:1010C000EB5FFD4F908196FD16C02F5F3F4F2C3098
:1010D000310571F781110FC01092800082E080937A
:1010E00081001092850010928400B19A80916F0067
:1010F000826080936F00E0912A028E2F90E0FC01C5
:10110000EE0FFF1FE80FF91FEB5FFD4F808180643A
:10111000808360E081E10E945C0260E082E10E94E5
:101120005C0280910001909101010E94870068EEAD
:1011300073E080E090E00E94C402C0E0D0E004EBE5
:1011400010E08EE00E948D02BC01990F880B990B74
:101150000E94680B20E030E040EA5BE30E941D0C37
:101160006B017C012DEC3CEC4CEC5DE30E94C00A71
:1011700087FD26C1C0926401D0926501E0926601AC
:10118000F09267016FE271E088E691E00E9442040C
:101190004091640150916501609166017091670111
:1011A00022E088E691E00E94D50460E271E088E6E2
:1011B00091E00E944204E0914002E23008F009C14F
:1011C000E150F0E0E35DFD4F848980680E94900368
:1011D00063E371E08DE292E00E9442044091640179
:1011E00050916501609166017091670122E08DE286
:1011F00092E00E94D50464E670E080E090E00E94F6
:10120000C40286E9E82EF12C80E10E948D02BC0127
:10121000990F880B990B0E94680B20916001309107
:10122000610140916201509163010E94540A4B0197
:101230005C018092600190926101A0926201B09283
:10124000630163E070E080E090E00E94C40281E00E
:10125000E81AF108C9F620E030E046E153E4C501A0
:10126000B4010E94C50A20E030E040EA5BE30E943E
:101270001D0C9B01AC0160E070E080E290E40E94F4
:10128000530A22E03BE247E85DE30E94C50A60930F
:101290005C0170935D0180935E0190935F016DE34B
:1012A00071E088E691E00E94420440915C01509117
:1012B0005D0160915E0170915F0122E088E691E03E
:1012C0000E94D50460E271E088E691E00E94420449
:1012D000E1E0809140028111E0E0E195F0E0E35D22
:1012E000FD4F848980680E94900367E471E08DE27D
:1012F00092E00E94420440915C0150915D01609136
:101300005E0170915F0122E08DE292E00E94D504BF
:1013100081E10E948D026C010E949D0482E10E9485
:101320008D027C010E949D04C6018E199F0997FFC2
:1013300003C09195819591094597B4F0C7018C1927
:101340009D0997FF03C0919581959109459764F098
:101350008091000190910101EC14FD04E4F50196E7
:10136000909301018093000180910001909101010F
:10137000853B910524F010930101009300018091B9
:1013800000019091010197FF04C010920101109299
:10139000000180910001909101010E9487006CE2A0
:1013A00071E080E090E00E94C402209709F4C9CE69
:1013B0000E946D01882309F4C4CE0E940000C1CEB2
:1013C00010926401109265011092660110926701FB
:1013D000D9CEE1E0F6CECE14DF0434F60197C0CFCB
:1013E000052E97FB1EF400940E94070A57FD07D0B4
:1013F0000E94220A07FC03D04EF40C94070A509571
:101400004095309521953F4F4F4F5F4F08959095F0
:101410008095709561957F4F8F4F9F4F08950E94E3
:10142000440AA59F900DB49F900DA49F800D911D1F
:1014300011240895B7FF0C940F0A0E940F0A821B13
:10144000930B0895A1E21A2EAA1BBB1BFD010DC030
:10145000AA1FBB1FEE1FFF1FA217B307E407F50764
:1014600020F0A21BB30BE40BF50B661F771F881F40
:10147000991F1A9469F760957095809590959B01D6
:10148000AC01BD01CF010895A29FB001B39FC0017F
:10149000A39F700D811D1124911DB29F700D811DA0
:1014A0001124911D08955058BB27AA270E946B0A4A
:1014B0000C94DE0B0E94D00B38F00E94D70B20F06A
:1014C00039F49F3F19F426F40C94CD0B0EF4E095FB
:1014D000E7FB0C94C70BE92F0E94EF0B58F3BA17E8
:1014E000620773078407950720F079F4A6F50C943A
:1014F000110C0EF4E0950B2EBA2FA02D0B01B901A3
:1015000090010C01CA01A0011124FF27591B99F079
:10151000593F50F4503E68F11A16F040A22F232F85
:10152000342F4427585FF3CF469537952795A795D5
:10153000F0405395C9F77EF41F16BA0B620B730B7C
:10154000840BBAF09150A1F0FF0FBB1F661F771FED
:10155000881FC2F70EC0BA0F621F731F841F48F4A2
:10156000879577956795B795F7959E3F08F0B0CF2B
:101570009395880F08F09927EE0F97958795089512
:101580000E94A30B08F481E008950E94D90A0C94EC
:10159000DE0B0E94D70B58F00E94D00B40F029F4CC
:1015A0005F3F29F00C94C70B51110C94120C0C9452
:1015B000CD0B0E94EF0B68F39923B1F3552391F300
:1015C000951B550BBB27AA2762177307840738F0B2
:1015D0009F5F5F4F220F331F441FAA1FA9F335D00F
:1015E0000E2E3AF0E0E832D091505040E695001CC3
:1015F000CAF72BD0FE2F29D0660F771F881FBB1F7D
:10160000261737074807AB07B0E809F0BB0B802D5A
:10161000BF01FF2793585F4F3AF09E3F510578F086
:101620000C94C70B0C94120C5F3FE4F3983ED4F378
:10163000869577956795B795F7959F5FC9F7880F5A
:10164000911D9695879597F90895E1E0660F771FAC
:10165000881FBB1F621773078407BA0720F0621B3D
:10166000730B840BBA0BEE1F88F7E09508950E9468
:10167000F70B88F09F5798F0B92F9927B751B0F022
:10168000E1F0660F771F881F991F1AF0BA95C9F706
:1016900014C0B13091F00E94110CB1E008950C9487
:1016A000110C672F782F8827B85F39F0B93FCCF33A
:1016B000869577956795B395D9F73EF49095809583
:1016C000709561957F4F8F4F9F4F0895E89409C0A3
:1016D00097FB3EF490958095709561957F4F8F4F65
:1016E0009F4F9923A9F0F92F96E9BB279395F6957B
:1016F000879577956795B795F111F8CFFAF4BB0FF9
:1017000011F460FF1BC06F5F7F4F8F4F9F4F16C05C
:10171000882311F096E911C0772321F09EE8872FE6
:10172000762F05C0662371F096E8862F70E060E0A2
:101730002AF09A95660F771F881FDAF7880F96951B
:10174000879597F90895990F0008550FAA0BE0E8BF
:10175000FEEF16161706E807F907C0F01216130673
:10176000E407F50798F0621B730B840B950B39F4B3
:101770000A2661F0232B242B252B21F408950A2619
:1017800009F4A140A6958FEF811D811D089597F959
:101790009F6780E870E060E008959FEF80EC089517
:1017A00000240A9416161706180609060895002440
:1017B0000A9412161306140605060895092E0394BA
:1017C000000C11F4882352F0BB0F40F4BF2B11F42E
:1017D00060FF04C06F5F7F4F8F4F9F4F089557FD8D
:1017E0009058440F551F59F05F3F71F04795880F8F
:1017F00097FB991F61F09F3F79F087950895121626
:1018000013061406551FF2CF4695F1DF08C01616D1
:1018100017061806991FF1CF869571056105089482
:101820000895E894BB2766277727CB0197F9089599
:101830000E94A30B08F48FEF08950E94300C0C94C3
:10184000DE0B0E94D00B38F00E94D70B20F09523BE
:1018500011F00C94C70B0C94CD0B11240C94120CAA
:101860000E94EF0B70F3959FC1F3950F50E0551F49
:10187000629FF001729FBB27F00DB11D639FAA27E5
:10188000F00DB11DAA1F649F6627B00DA11D661F34
:10189000829F2227B00DA11D621F739FB00DA11D55
:1018A000621F839FA00D611D221F749F3327A00D0F
:1018B000611D231F849F600D211D822F762F6A2FAB
:1018C00011249F5750409AF0F1F088234AF0EE0F10
:1018D000FF1FBB1F661F771F881F91505040A9F73D
:1018E0009E3F510580F00C94C70B0C94120C5F3F87
:1018F000E4F3983ED4F3869577956795B795F79579
:10190000E7959F5FC1F7FE2B880F911D96958795F0
:1019100097F908950E94A30B880B990B0895991BC2
:1019200079E004C0991F961708F0961B881F7A95D6
:10193000C9F780950895EE0FFF1F0590F491E02DF3
:061940000994F894FFCFAA
:101946005A0000000000A30103013001F00161010B
:101956003F015301000000003C040301F702F602B8
:101966000D0A006E616E00696E66006F766600761F
:101976003D2000566F6C746167653D20006375728B
:1019860072656E74203D0043757272656E743D20FB
:0219960000004F
:00000001FF
