:020000040000FA
:100000000C94E0000C9408010C9408010C9437093E
:100010000C9437090C9437090C9408010C940801CE
:100020000C9408010C9408010C9408010C947B08B2
:100030000C9408010C9408010C9408010C9408011C
:100040000C9431080C9408010C94FF070C94D90708
:100050000C9408010C9408010C9408010C940801FC
:100060000C9408010C94080100407A10F35A00A087
:10007000724E18090010A5D4E80000E87648170071
:1000800000E40B54020000CA9A3B000000E1F505B1
:10009000000080969800000040420F000000A086FB
:1000A00001000000102700000000E803000000002D
:1000B0006400000000000A000000000001000000D1
:1000C00000002C76D888DC674F0823DFC1DFAE59EB
:1000D000E1B1B796E5E3E453C63AE651997696E87E
:1000E000E6C28426EB898C9B62ED407C6FFCEFBC02
:1000F0009C9F40F2BAA56FA5F490055A2AF75C932D
:100100006B6CF9676DC11BFCE0E40D47FEF520E662
:10011000B500D0ED902E0300943577050080841E45
:10012000080000204E0A000000C80C333333330FA0
:10013000986E12831141EF8D2114893BE65516CF3D
:10014000FEE6DB18D1844B381BF77C1D901DA4BB49
:10015000E424203284725E228100C9F124ECA1E5FE
:100160003D2700000000240027002A0000000008AE
:10017000000201000003040700000000000000006E
:1001800000000000230026002900000000002500D8
:1001900028002B00040404040404040402020202E4
:1001A000020203030303030301020408102040803A
:1001B000010204081020010204081020AF09220ED9
:1001C00011241FBECFEFD8E0DEBFCDBF11E0A0E00D
:1001D000B1E0ECE4FBE202C005900D92AC36B10751
:1001E000D9F722E0ACE6B1E001C01D92AC3CB20709
:1001F000E1F710E0CFEDD0E004C02197FE010E94AE
:10020000A113CE3DD107C9F70E94A70A0C949915F6
:100210000C940000CF92DF92EF92FF92DC01A032AB
:1002200082E0B807D4F5A53BB10514F0A4EBB0E02B
:100230004091890228E830E0241B310947FD3395BD
:10024000220F331F220F331F6901330FEE08FF08FF
:1002500040918A0228E532E0241B310947FD33959D
:10026000220F331F220F331F032E000C440B550B9C
:100270002C193D094E095F09B7FF02C0B0E0A0E0AC
:100280000E94E51124EB30E040E050E00E94BB11F9
:10029000C20ED31EE41EF51ED601E0918802EC309A
:1002A00080F52091890288E890E0821B910927FD62
:1002B0009395880F991F880F991FA817B90784F085
:1002C00020918A0288E592E0821B910927FD93958F
:1002D000880F991F880F991FA817B9070CF4CD0133
:1002E0000297880F991F4FB7F8942E2F30E0F9012D
:1002F000EE0FFF1FE20FF31FED59FD4F9283818335
:100300004FBFFF90EF90DF90CF900895AF92BF92D4
:10031000CF92DF92EF92FF920F931F93CF93DF93D1
:100320006C017B018B01040F151FEB015E01AE1800
:10033000BF08C017D10759F06991D601ED91FC9122
:100340000190F081E02DC6010995892B79F7C5014F
:10035000DF91CF911F910F91FF90EF90DF90CF90A1
:10036000BF90AF900895FC01538D448D252F30E050
:10037000842F90E0821B930B541710F0CF960895B2
:1003800001970895FC01918D828D981761F0A28DDF
:10039000AE0FBF2FB11D5D968C91928D9F5F9F73A5
:1003A000928F90E008958FEF9FEF0895FC01918D5B
:1003B000828D981731F0828DE80FF11D858D90E0C8
:1003C00008958FEF9FEF0895FC01918D228D892F65
:1003D00090E0805C9F4F821B91098F73992708954D
:1003E00086EC91E00E94E40121E0892B09F420E0F1
:1003F000822F089580E090E0892B29F00E94F0017F
:1004000081110C9400000895FC01A48DA80FB92F50
:10041000B11DA35ABF4F2C91848D90E001968F732C
:100420009927848FA689B7892C93A089B1898C914B
:10043000837080648C93938D848D981306C002889A
:10044000F389E02D80818F7D80830895EF92FF9264
:100450000F931F93CF93DF93EC0181E0888F9B8DE7
:100460008C8D98131AC0E889F989808185FF15C0A1
:100470009FB7F894EE89FF896083E889F9898081C4
:100480008370806480839FBF81E090E0DF91CF9193
:100490001F910F91FF90EF900895F62E0B8D10E0B5
:1004A0000F5F1F4F0F731127E02E8C8D8E110CC024
:1004B0000FB607FCFACFE889F989808185FFF5CF6F
:1004C000CE010E940402F1CFEB8DEC0FFD2FF11D48
:1004D000E35AFF4FF0829FB7F8940B8FEA89FB89AC
:1004E00080818062CFCFCF93DF93EC01888D88230A
:1004F000B9F0AA89BB89E889F9898C9185FD03C087
:10050000808186FD0DC00FB607FCF7CF8C9185FF6B
:10051000F2CF808185FFEDCFCE010E940402E9CFAA
:10052000DF91CF91089590E0FC01E459FE4F2491B2
:10053000FC01E855FE4F3491FC01EC56FE4FE4916E
:10054000EE23C9F0222339F0233001F1A8F4213041
:1005500019F1223029F1F0E0EE0FFF1FE657FE4FB0
:10056000A591B4918FB7F894EC91611126C03095A4
:100570003E233C938FBF08952730A9F02830C9F05F
:10058000243049F7809180008F7D03C080918000E6
:100590008F7780938000DFCF84B58F7784BDDBCFEA
:1005A00084B58F7DFBCF8091B0008F778093B000B2
:1005B000D2CF8091B0008F7DF9CF3E2BDACFCF9391
:1005C000DF9390E0FC01E855FE4F24918C569E4F3E
:1005D000FC0184918823D1F090E0880F991FFC01E1
:1005E000EE59FE4FA591B491FC01E657FE4FC5911F
:1005F000D49161110EC09FB7F8948C91E22FE095D1
:100600008E238C932881E223E8839FBFDF91CF91D3
:1006100008958FB7F894EC91E22BEC938FBFF6CF4F
:100620008E50806480937C0080917A0080648093F7
:100630007A0080917A0086FDFCCF809178009091BD
:10064000790008953FB7F8948091B2019091B30179
:10065000A091B401B091B50126B5A89B05C02F3F6C
:1006600019F00196A11DB11D3FBFBA2FA92F982FD8
:100670008827BC01CD01620F711D811D911D42E0D3
:10068000660F771F881F991F4A95D1F708958F929B
:100690009F92AF92BF92CF92DF92EF92FF924B0167
:1006A0005C010E9422036B017C010E9422036C19F1
:1006B0007D098E099F09683E734081059105A8F365
:1006C00021E0821A9108A108B10888EEC80E83E0E3
:1006D000D81EE11CF11C81149104A104B10429F776
:1006E000FF90EF90DF90CF90BF90AF909F908F9052
:1006F00008952091B8013091B9012817390771F494
:100700009091B6018091B701981741F0E091B60140
:10071000F0E0E459FE4F808190E008958FEF9FEF65
:1007200008950895EF92FF920F931F93CF93DF9355
:10073000DC015C96ED90FC905D97E114F10479F496
:1007400081E090E013969C938E93129790E080E066
:10075000DF91CF911F910F91FF90EF9008955196E7
:10076000ED91FC91529750968C915097982F9095BF
:100770000FB75E962C915E97122F127021FD609537
:10078000F8942081112319F1282B2083E701219768
:10079000F1F728E0462F50E0308160FF1AC0382B77
:1007A0003083E7012197F1F7BA01759567952150DC
:1007B00089F7112381F08081892380830FBF5C96A4
:1007C0008D919C910197F1F781E090E0C1CF2923B1
:1007D000DCCF3923E5CF9081892BEFCF2091B80171
:1007E0003091B9012817390771F48091B701209130
:1007F000B60190E0805C9F4F821B910960E470E03D
:100800000E947913089590E080E008952091B80146
:100810003091B90128173907B9F49091B601809148
:10082000B701981789F0E091B601F0E0E459FE4F66
:1008300080812091B60130E02F5F3F4F2F73332727
:100840002093B60190E008958FEF9FEF08950895EB
:1008500090E080E00895CF93DF93EC0160E08E811B
:100860000E94930261E08E810E94930260E08E817B
:100870000E9493028BE891E00197F1F7DF91CF910D
:100880000895CF92DF92EF92FF920F931F93CF9331
:10089000DF936C017C0187E0E80EF11CD0E0C0E042
:1008A000062F10E0B8010C2E02C0759567950A94CA
:1008B000E2F76170F70181917F010E949302219616
:1008C000C430D10579F7C601DF91CF911F910F9107
:1008D000FF90EF90DF90CF900C942B04CF92DF929B
:1008E000EF92FF920F931F93CF93DF93EC01F62EBD
:1008F000642F8C810E9493028D818F3F19F060E0FC
:100900000E9493020F2D10E08F8584FF25C06E0199
:1009100087E0C80ED11CF12CE12CB8010E2C02C0CE
:10092000759567950A94E2F76170F60181916F0100
:100930000E949302FFEFEF1AFF0A88E0E816F10425
:1009400061F7CE01DF91CF911F910F91FF90EF9052
:10095000DF90CF900C942B04B80184E075956795D7
:100960008A95E1F7CE010E9441046F2DCE01DF91FF
:10097000CF911F910F91FF90EF90DF90CF900C944B
:10098000410440E0682F8BE892E00C946E04CF9312
:10099000DF93823029F490919A02986090939A02A2
:1009A00080939E0210929F0280E48093A00280E1D7
:1009B0008093A10280E58093A20261E080918F0282
:1009C0000E94DF02809190028F3F19F061E00E9447
:1009D000DF0261E0809191020E94DF02CBE8D2E069
:1009E0009E012B58324080919A0284FD0BC084E016
:1009F00090E021962817390744F461E08E810E9427
:100A0000DF02EECF88E090E0F4CF8BE39DE001972A
:100A1000F1F760E080918F020E94930260E0809184
:100A200091020E949302809190028F3F19F060E042
:100A30000E94930280919A0284FD39C063E08BE8A2
:100A400092E00E944104CBE4D6E4CE010197F1F795
:100A500063E08BE892E00E9441042197F1F763E0A4
:100A60008BE892E00E94410483E592E00197F1F760
:100A700062E08BE892E00E94410480919A028062D9
:100A80000E94C10484E080939B028CE00E94C10418
:100A900081E00E94C1048BE39FE10197F1F782E0BE
:100AA00080939C0286E0DF91CF910C94C104806218
:100AB0000E94C1048BE496E40197F1F780919A02B9
:100AC00080620E94C10483E592E00197F1F7809172
:100AD0009A0280620E94C104D0CF41E00E946E045D
:100AE00081E090E00895FB0101900020E9F7319743
:100AF000AF01461B570BDC01ED91FC910280F381A5
:100B0000E02D09948F929F92AF92BF92EF92FF9245
:100B10000F931F93CF93DF93CDB7DEB7A1970FB697
:100B2000F894DEBF0FBECDBF7C01FA01CB0119A244
:100B3000223008F42AE08E010F5D1F4F822E912C87
:100B4000B12CA12CBF01A50194010E942412F9012E
:100B5000CA016A300CF5605DD8016E938D01232BBC
:100B6000242B252B79F790E080E0109721F0BD0130
:100B7000C7010E947305A1960FB6F894DEBF0FBEA1
:100B8000CDBFDF91CF911F910F91FF90EF90BF905C
:100B9000AF909F908F900895695CDECFCF92DF92E7
:100BA000EF92FF92CF93DF936C01990FEE08FF084D
:100BB000F7FE23C06DE286EC91E00E942602EC0174
:100BC00044275527BA014C195D096E097F092AE0AF
:100BD00086EC91E00E948205C80FD91F68E371E09E
:100BE00086EC91E00E9473058C0F9D1FDF91CF91E1
:100BF000FF90EF90DF90CF9008952AE0B701A60113
:100C000086EC91E00E948205EC01E8CF2F923F92A2
:100C10004F925F926F927F928F929F92AF92BF920C
:100C2000CF92DF92EF92FF921F93CF93DF93EC016D
:100C30006A017B01722EAB019601CB01B6010E94C5
:100C400068136BE371E0811126C046015701E894F7
:100C5000B7F82FEF3FEF4FE75FE7C501B4010E9400
:100C6000681381110CC02FEF3FEF4FE75FE7C5011D
:100C7000B4010E9497106FE371E0181664F02FEF33
:100C80003FEF4FE75FE4C701B6010E9463131816F8
:100C9000B4F463E471E0CE01DF91CF911F91FF9036
:100CA000EF90DF90CF90BF90AF909F908F907F900C
:100CB0006F905F904F903F902F900C9473052FEFA3
:100CC0003FEF4FE75FECC701B6010E94971087FD29
:100CD000E0CF20E030E0A901C701B6010E949710E3
:100CE000312C212C87FF0DC0E881F9810190F08122
:100CF000E02D6DE2CE0109951C01F7FAF094F7F8AA
:100D0000F09410E060E070E080E09FE3711641F045
:100D100020E030E040E251E40E94C2121F5FF6CFB3
:100D2000A70196010E9456122B013C010E94341328
:100D30004B015C012AE0BC01A401CE010E948205A6
:100D40007C01E20CF31C1123E1F1C501B4010E9406
:100D50009C109B01AC01C301B2010E9455124B01D2
:100D60005C01E881F9810190F081E02D6EE2CE0115
:100D70000995E80EF91E115020F120E030E040E224
:100D800051E4C501B4010E94FD102B013C010E94F9
:100D900034134B01B12CA12C2AE0B501A401CE01E2
:100DA0000E948205E80EF91EC501B4010E949C1044
:100DB0009B01AC01C301B2010E9455124B015C01C1
:100DC000DACFC701DF91CF911F91FF90EF90DF90B5
:100DD000CF90BF90AF909F908F907F906F905F90DB
:100DE0004F903F902F900895CF93DF93EC0188812F
:100DF0009981009711F00E944314198218821D8274
:100E00001C821B821A82DF91CF910895FC018081A0
:100E10009181009711F00C94431408950F931F9340
:100E2000CF93DF93EC0188819981009759F02A8153
:100E30003B812617370730F081E0DF91CF911F917A
:100E40000F9108958B016F5F7F4F0E94CC14009724
:100E500059F0998388831B830A832C813D81232B3E
:100E600059F7FC011082E8CF80E0E7CFEF92FF92C4
:100E70000F931F93CF93DF93EC01FB01E080F18090
:100E8000E114F10411F10481158101151105A9F096
:100E90008C819D81080F191FB801CE010E940E0799
:100EA000882399F0288139818C819D81B701820F37
:100EB000931F0E9492151D830C83CE01DF91CF9169
:100EC0001F910F91FF90EF900895CE010E94F406BC
:100ED000F4CFEF92FF920F931F93CF93DF93EC0128
:100EE0007B018A01BA010E940E0781110BC0CE015D
:100EF0000E94F406CE01DF91CF911F910F91FF90D8
:100F0000EF9008951D830C83B701888199810E9419
:100F10009215F0CFEF92FF920F931F93CF93DF9331
:100F2000CDB7DEB7A1970FB6F894DEBF0FBECDBF29
:100F30007C01CB01BA01F701118210821382128267
:100F4000158214828E010F5F1F4F22E044E00E9441
:100F5000420E0097C9F0FC0101900020E9F731979B
:100F6000AF01481B590BBC01C7010E946907A1963C
:100F70000FB6F894DEBF0FBECDBFDF91CF911F91AA
:100F80000F91FF90EF900895C7010E94F406EFCFF4
:100F9000FC01118210821382128215821482FB01DD
:100FA00001900020E9F73197AF01461B570B0C94D5
:100FB00069071F920F920FB60F9211242F933F9340
:100FC0004F935F936F937F938F939F93AF93BF9351
:100FD000EF93FF9386EC91E00E940402FF91EF9162
:100FE000BF91AF919F918F917F916F915F914F9141
:100FF0003F912F910F900FBE0F901F9018951F9249
:101000000F920FB60F9211242F938F939F93EF930C
:10101000FF93E091D601F091D7018081E091DC014E
:10102000F091DD0182FD1BC090818091DF018F5F17
:101030008F732091E001821741F0E091DF01F0E031
:10104000EA53FE4F958F8093DF01FF91EF919F91BF
:101050008F912F910F900FBE0F901F901895808148
:10106000F4CF1F920F920FB60F9211242F933F933C
:101070008F939F93AF93BF938091AE019091AF01F7
:10108000A091B001B091B1013091AD0123E0230FE7
:101090002D3758F50196A11DB11D2093AD01809308
:1010A000AE019093AF01A093B001B093B1018091D4
:1010B000B2019091B301A091B401B091B501019634
:1010C000A11DB11D8093B2019093B301A093B4010F
:1010D000B093B501BF91AF919F918F913F912F91A7
:1010E0000F900FBE0F901F90189526E8230F0296C1
:1010F000A11DB11DD2CF1F920F920FB60F921124D6
:101100002F933F934F935F936F937F938F939F930F
:10111000AF93BF93CF93DF93EF93FF938091AC0195
:10112000C0918702D0E087FF24C010928500109202
:1011300084008091AC018F5F8093AC018091AC0101
:10114000082E000C990B8C179D0724F48091AC019C
:101150008C30C4F180918400909185000496803495
:101160009C4908F47AC0809184009091850004968F
:1011700076C08091AC01082E000C990B8C179D074E
:10118000C4F6E091AC018E2FEE0F990BFC01EE0F2F
:10119000FF1FE80FF91FED59FD4F808186FFC9CF72
:1011A000E091AC018E2FEE0F990BFC01EE0FFF1FAB
:1011B000E80FF91FED59FD4F808160E08F730E94A9
:1011C0009302B7CF2091840030918500E091AC016B
:1011D0008E2FEE0F990BFC01EE0FFF1FE80FF91F8A
:1011E000ED59FD4F81819281820F931F9093890069
:1011F00080938800E091AC018E2FEE0F990BFC01DB
:10120000EE0FFF1FE80FF91FED59FD4F808186FF9C
:1012100011C0E091AC018E2FEE0F990BFC01EE0F87
:10122000FF1FE80FF91FED59FD4F808161E08F73BB
:101230000E949302FF91EF91DF91CF91BF91AF9107
:101240009F918F917F916F915F914F913F912F91DE
:101250000F900FBE0F901F90189580E49CE990931B
:101260008900809388008FEF8093AC01E3CF1F92B9
:101270000F920FB60F9211242F933F934F935F93CA
:101280006F937F938F939F93AF93BF93EF93FF934E
:10129000E091B801F091B901309749F0A685B78582
:1012A0008585968D91FF14C09C918923A1F4FF91AF
:1012B000EF91BF91AF919F918F917F916F915F91CE
:1012C0004F913F912F910F900FBE0F901F90189547
:1012D0009C91892361F7A389B4899C918589809524
:1012E00089238C93868997890197F1F7608D718D99
:1012F000A685B785558538E020E0CB010197F1F749
:10130000822F90E095958795282F4C91452309F0E1
:101310002068315091F7868D81FD20958091B7012D
:1013200090E001968F7399273091B601381799F0A4
:10133000A091B701B0E0A459BE4F2C938093B701A0
:10134000828D938D0197F1F7A389B4898C9195894A
:10135000892B8C93ACCF868D8160868FF1CFCF9314
:101360001092C9011092C80188EE93E0A0E0B0E0AD
:101370008093CA019093CB01A093CC01B093CD018F
:101380002CE031E03093C7012093C60125EC30E01A
:101390003093D3012093D20124EC30E03093D50177
:1013A0002093D40120EC30E03093D7012093D60174
:1013B00021EC30E03093D9012093D80122EC30E0C9
:1013C0003093DB012093DA0126EC30E03093DD012D
:1013D0002093DC011092DF011092E0011092E101F4
:1013E0001092E2011092AC021092AB028093AD0217
:1013F0009093AE02A093AF02B093B0028AE291E064
:101400009093AA028093A9021092C0021092BF0288
:101410001092C2021092C1021092C4021092C30232
:101420001092C6021092C5026091C7026E7F6D7F56
:101430006093C7026695617081E068278DE00E9425
:10144000930261E08DE00E94DF02E5EBF1E0E491C0
:10145000E093B902E1EAF1E0E491F0E0EE0FFF1F62
:10146000E657FE4F859194919093BB028093BA0208
:1014700060E08CE00E94DF028091C70281FD04C021
:1014800061E08CE00E9493028CE08093B502E4EB73
:10149000F1E0E491E093B602E0EAF1E0E491F0E0FB
:1014A000EE0FFF1FE058FE4F859194919093B80284
:1014B0008093B7026AE371E083EA92E00E94C80772
:1014C00010928E0210928D028EE191E090938C0228
:1014D00080938B0282E080938F02CFEFC0939002C3
:1014E00083E08093910284E08093920285E0809370
:1014F000930286E08093940287E080939502109295
:1015000096021092970210929802109299021092ED
:101510009A0281E00E94C704809187028C30A0F477
:1015200091E0980F909387028093880290E0FC01ED
:10153000EE0FFF1FE80FF91FED59FD4F88EB9BE001
:1015400092838183CF910895C0938802FBCFCF937C
:10155000DF93CDB7DEB76E970FB6F894DEBF0FBE40
:10156000CDBF789484B5826084BD84B5816084BD2C
:1015700085B5826085BD85B5816085BD80916E0031
:10158000816080936E001092810080918100826062
:10159000809381008091810081608093810080919F
:1015A00080008160809380008091B100846080938E
:1015B000B1008091B00081608093B00080917A008A
:1015C000846080937A0080917A00826080937A00B0
:1015D00080917A00816080937A0080917A0080689F
:1015E00080937A001092C10082E00E94C704E1E07B
:1015F00080919E028111E0E0E195F0E0E557FD4F1A
:10160000848980680E94C104E091D601F091D701DD
:1016100082E08083E091D201F091D3011082E091C9
:10162000D401F091D5018FEC80831092DE01E0911E
:10163000DA01F091DB0186E08083E091D801F0913E
:10164000D901808180618083E091D801F091D90136
:10165000808188608083E091D801F091D9018081F8
:1016600080688083E091D801F091D90180818F7DDD
:1016700080831092C4021092C3021092C202109290
:10168000C1021092C0021092BF028FE190E09093CD
:10169000C6028093C5029091B502963108F047C00A
:1016A00021E030E03093C0022093BF022DE130E012
:1016B0003093C2022093C1022DE030E03093C40287
:1016C0002093C3022091680084E0983048F031E014
:1016D0009E3008F430E081E001C0880F3A95EAF7C7
:1016E000822B809368002DE630E0983050F02BE696
:1016F00030E09E3030F02CE630E0963110F030E0F3
:1017000020E03093BD022093BC02292F30E09830B6
:1017100008F075C281E001C0880F9A95EAF78093BE
:10172000BE028091C5029091C6020197F1F78091A7
:10173000C3029091C402892B49F1E091B801F09164
:10174000B90122E0E93AF20709F1309739F0A389AB
:10175000B4899C918589809589238C938091C70257
:101760008E7F8093C7021092B7011092B60189EA6A
:1017700092E09093B9018093B801E091BC02F0919E
:10178000BD0280819091BE02892B80838091880266
:101790008C3008F051C061E089E00E94DF02809146
:1017A0008802282F30E0F901EE0FFF1FE20FF31F30
:1017B000ED59FD4F9081907C996090831092890241
:1017C00010928A022CE0622F0E946D13829FB0015A
:1017D000112430E020E0AB01420F531FFA01EE0F5D
:1017E000FF1FE40FF51FED59FD4F908196FD16C0C8
:1017F0002F5F3F4F2C30310571F781110FC01092D0
:10180000800082E080938100109285001092840015
:10181000B19A80916F00826080936F00E09188029E
:101820008E2F90E0FC01EE0FFF1FE80FF91FED591E
:10183000FD4F80818064808360E081E10E94DF024F
:1018400060E082E10E94DF0280910001909101013D
:101850000E940A0168EE73E080E090E00E94470376
:1018600000E010E094EBE92EF12C8EE00E941003D2
:10187000BC01990F880B990B0E949E1020E030E06C
:1018800040EA5BE30E94FD1020E030E040EF51ECC5
:101890000E94FD104B015C012DEC3CEC4CEC5DE337
:1018A0000E94971087FDB8C18092C2019092C30137
:1018B000A092C401B092C50167E471E086EC91E0AA
:1018C0000E9473054091C2015091C3016091C4010F
:1018D0007091C50122E086EC91E00E94060668E363
:1018E00071E086EC91E00E947305E0919E02E23087
:1018F00008F09BC1E150F0E0E557FD4F8489806816
:101900000E94C1046BE471E08BE892E00E947305D1
:101910004091C2015091C3016091C4017091C50111
:1019200022E08BE892E00E94060664E670E080E028
:1019300090E00E94470386E9C82ED12C80E10E94E6
:101940001003BC01990F880B990B0E949E102091E7
:10195000BE013091BF014091C0015091C1010E9470
:1019600056124B015C018092BE019092BF01A09281
:10197000C001B092C10163E070E080E090E00E949D
:10198000470381E0C81AD108C9F620E030E046E1FB
:1019900053E4C501B4010E94C21220E030E040EAE5
:1019A0005BE30E94FD109B01AC0160E070E080E20F
:1019B00090E40E94551222E03BE247E85DE30E947A
:1019C000C2126093BA017093BB018093BC019093E3
:1019D000BD0165E571E086EC91E00E9473054091E0
:1019E000BA015091BB016091BC017091BD0122E030
:1019F00086EC91E00E94060668E371E086EC91E0D7
:101A00000E947305E1E080919E028111E0E0E19582
:101A1000F0E0E557FD4F848980680E94C1046FE5BE
:101A200071E08BE892E00E9473054091BA015091F9
:101A3000BB016091BC017091BD0122E08BE892E096
:101A40000E94060681E10E9410035C010E94CE05FF
:101A500082E10E9410036C010E94CE05C5018C1921
:101A60009D0997FF03C09195819591094597BCF019
:101A7000C6018A199B0997FF03C091958195910929
:101A800045976CF08091000190910101CA14DB042C
:101A90000CF0CDC0019690930101809300018091DC
:101AA000000190910101853B910524F0F092010124
:101AB000E0920001809100019091010197FF04C024
:101AC000109201011092000180910001909101019A
:101AD0000E940A016CE271E080E090E00E944703FE
:101AE00069E671E0CE0101960E94C8074091BA01F3
:101AF0005091BB016091BC017091BD01CE01079670
:101B00000E948A0769E671E0CE010D960E94C8071F
:101B10004091C2015091C3016091C4017091C5010F
:101B2000CE0149960E948A071C8A1B8A1E8A1D8A3A
:101B3000188E1F8A698D7A8D6115710531F04D8D72
:101B40005E8DCE0143960E946907BE01635F7F4FA1
:101B5000CE0143960E943607BE01695F7F4F0E9407
:101B60003607BE016F5F7F4F0E943607E2E0833A7F
:101B70009E0769F0FC01608171816115710509F4AE
:101B80005CC04481558183EA92E00E946907CE01DE
:101B900043960E940607CE0149960E940607CE0191
:101BA0000D960E940607CE0107960E940607CE01F9
:101BB00001960E9406074091A7025091A8026091E9
:101BC000A3027091A40289EA92E00E94860168E370
:101BD00071E089EA92E00E94730568EE73E080E0AC
:101BE00090E00E9447030115110509F43ECE0E94C2
:101BF000F001882309F439CE0E94000036CE9E30D1
:101C000040F42850310981E001C0880F2A95EAF795
:101C100086CD2E503109F7CF1092C2011092C30128
:101C20001092C4011092C50147CEE1E064CEAC141D
:101C3000BD040CF034CF01972ECF83EA92E00E94CE
:101C4000F406A5CF83EA92E00E9406078AE291E0BB
:101C50009093AA028093A9028091B8019091B90152
:101C6000895A924071F4E091BC02F091BD029081DA
:101C70008091BE028095892380831092B9011092D1
:101C8000B8010895EF920F931F93CF93DF93E8016C
:101C900034E047FD34E1042E000C550B57FF03C020
:101CA000519541955109E32E022F242FAE010E9438
:101CB000600ECE01DF91CF911F910F91EF900895AB
:101CC000A9E0B0E0E6E6FEE00C94F3116A01F22E22
:101CD000B02E102FFBE3AF2EA01608F41BE31F5FFE
:101CE000012F27E0AE014F5F5F4F0E94BF0FBC0185
:101CF0008981982F9970913009F43FC09BE2E1FCF3
:101D000004C09E2D9170E0FC3AC05E2D5071E82F0A
:101D1000E87083FF46C084E0911101C083E0EF2D9D
:101D2000E81B8F1508F0E0E0D6018E2F20E2552346
:101D300051F1992329F0D6019C93C60101966C01BB
:101D400096012D5F3F4FE2FE24C08EE4D6018C93B6
:101D500091E411969C93119712968C93D9018E2F32
:101D600090E281111BC0E20FF32FF11D10828EEF64
:101D70009FEF2996ECE00C940F129DE2C6CF90E203
:101D8000C4CF2D9381508111FCCFCE0ED11CE0E049
:101D9000D0CF8EE6D6018C9391E6DBCF9D93815018
:101DA000E0CF482F447082FF3DC084E0911101C014
:101DB00083E08F1510F4EF2DE81BD6018E2F20E263
:101DC000552309F1992329F0D6019C93C601019668
:101DD0006C0196012D5F3F4FE2FE1BC089E4D601E6
:101DE0008C938EE411968C93119786E412968C93C3
:101DF000D9018E2F90E2882309F4B5CF9D938150AD
:101E0000FACF2D9381508111FCCFCE0ED11CE0E092
:101E1000D9CF89E6D6018C938EE611968C931197D3
:101E200086E6E4CF9B0177FF02C030E020E0A1E02E
:101E3000B0E0911102C0B0E0A0E0F9013196AE0F20
:101E4000BF1F8B2C912CBB2009F461C05401EFEF14
:101E5000AE1ABE0AAA0DBB1DFA161B0619F014F025
:101E60004F2D4A1B511188C0E3FC59C07601A42FA5
:101E7000B0E2A1114FC0C40ED11C992309F45BC07C
:101E800040E0D6011196F60190836D01552309F4C7
:101E900048C0012F060F9A81582F507184FF03C04C
:101EA000913309F4015010160CF047C0093008F0C6
:101EB00008E0EEE2FE2E5B01A01AB10885019194C4
:101EC000819491082F3F320729F4D601FC92F60144
:101ED00031966F016217730794F1021713077CF5AF
:101EE000DB01A21BB30BAA24A394B12CAC0EBD1E24
:101EF000AA0DBB1D11968C9121503109D601119666
:101F000028153905F4F0F60180836D01DBCFB12C83
:101F1000A12CA0CFF701B1937F01A150AACF9111BD
:101F2000B0CFD601942F50E302C05D939150911130
:101F3000FCCFC40ED11C40E0ACCF01E0BACF80E3AF
:101F4000DBCF6217730731F4963388F4953311F4BD
:101F5000552369F0F6018083FD01842F90E2811101
:101F600008C0A40FB11D1C9290E080E002CF81E375
:101F7000F1CF91938150F3CF911183CF8ACF283045
:101F800008F027E03327DA01990F311D87FD9160B2
:101F900000966105710539F432602E5F3D9330E3A0
:101FA0002A95E1F708959F3F30F08038710561056B
:101FB00009F03C5F3C5F3D93913008F08068911DD3
:101FC000DF93CF931F930F93FF92EF92192F987F78
:101FD0009695E92F96959695E90FFF27EE53FF4FBB
:101FE00099273327EE24FF24A701E70105900894E1
:101FF000079428F4360FE71EF81E491F511D660F7F
:10200000771F881F991F0694A1F70590079428F45D
:10201000E70EF81E491F561FC11D770F881F991F15
:10202000661F0694A1F70590079428F4F80E491F3F
:10203000561FC71FD11D880F991F661F771F069453
:10204000A1F70590079420F4490F561FC71FD81F0A
:10205000990F661F771F881F0694A9F78491109522
:10206000177041F0D695C79557954795F794E79423
:102070001A95C1F7E8E6F0E068941590159135914E
:102080006591959105907FE27395E118F10A430BF4
:10209000560BC90BD009C0F7E10CF11E431F561FA8
:1020A000C91FD01D7EF4703311F48A95E6CFE894F1
:1020B000015030F0080F0AF40027021708F4202F0F
:1020C0002395022F7A3328F079E37D932A95E9F757
:1020D00010C07D932A9589F6069497956795379554
:1020E00017951794E118F10A430B560BC90BD00949
:1020F00098F023957E9173957A3308F070E37C9382
:102100002013B8F77E9170617D9330F0839571E371
:102110007D9370E32A95E1F71124EF90FF900F91E2
:102120001F91CF91DF91992787FD909508950E9487
:10213000D91008F481E00895E89409C097FB3EF4B3
:1021400090958095709561957F4F8F4F9F4F992304
:10215000A9F0F92F96E9BB279395F6958795779582
:102160006795B795F111F8CFFAF4BB0F11F460FF42
:102170001BC06F5F7F4F8F4F9F4F16C0882311F09A
:1021800096E911C0772321F09EE8872F762F05C0AE
:10219000662371F096E8862F70E060E02AF09A9549
:1021A000660F771F881FDAF7880F9695879597F93E
:1021B0000895990F0008550FAA0BE0E8FEEF1616D8
:1021C0001706E807F907C0F012161306E407F5072B
:1021D00098F0621B730B840B950B39F40A2661F09F
:1021E000232B242B252B21F408950A2609F4A14042
:1021F000A6958FEF811D811D08950E9410110C94EA
:1022000081110E94731138F00E947A1120F09523F9
:1022100011F00C946A110C94701111240C94B511E6
:102220000E94921170F3959FC1F3950F50E0551FD6
:10223000629FF001729FBB27F00DB11D639FAA271B
:10224000F00DB11DAA1F649F6627B00DA11D661F6A
:10225000829F2227B00DA11D621F739FB00DA11D8B
:10226000621F839FA00D611D221F749F3327A00D45
:10227000611D231F849F600D211D822F762F6A2FE1
:1022800011249F5750409AF0F1F088234AF0EE0F46
:10229000FF1FBB1F661F771F881F91505040A9F773
:1022A0009E3F510580F00C946A110C94B5115F3F6C
:1022B000E4F3983ED4F3869577956795B795F795AF
:1022C000E7959F5FC1F7FE2B880F911D9695879527
:1022D00097F9089597F99F6780E870E060E00895A6
:1022E0009FEF80EC089500240A941616170618062E
:1022F0000906089500240A9412161306140605060A
:102300000895092E0394000C11F4882352F0BB0F9A
:1023100040F4BF2B11F460FF04C06F5F7F4F8F4FFD
:102320009F4F089557FD9058440F551F59F05F3F38
:1023300071F04795880F97FB991F61F09F3F79F0E7
:1023400087950895121613061406551FF2CF469569
:10235000F1DF08C0161617061806991FF1CF8695EB
:102360007105610508940895E894BB2766277727CF
:10237000CB0197F90895052E97FB1EF400940E9457
:10238000D21157FD07D00E94241207FC03D04EF44F
:102390000C94D21150954095309521953F4F4F4F59
:1023A0005F4F089590958095709561957F4F8F4F01
:1023B0009F4F08950E944612A59F900DB49F900DC7
:1023C000A49F800D911D11240895B7FF0C94DA117C
:1023D0000E94DA11821B930B08952F923F924F9225
:1023E0005F926F927F928F929F92AF92BF92CF92A5
:1023F000DF92EF92FF920F931F93CF93DF93CDB7AE
:10240000DEB7CA1BDB0B0FB6F894DEBF0FBECDBF25
:1024100009942A88398848885F846E847D848C84F6
:102420009B84AA84B984C884DF80EE80FD800C81FF
:102430001B81AA81B981CE0FD11D0FB6F894DEBFE2
:102440000FBECDBFED010895A1E21A2EAA1BBB1B42
:10245000FD010DC0AA1FBB1FEE1FFF1FA217B30770
:10246000E407F50720F0A21BB30BE40BF50B661F86
:10247000771F881F991F1A9469F76095709580954A
:1024800090959B01AC01BD01CF010895A29FB001C1
:10249000B39FC001A39F700D811D1124911DB29F98
:1024A000700D811D1124911D08955058BB27AA2736
:1024B0000E946D120C9481110E94731138F00E94D9
:1024C0007A1120F039F49F3F19F426F40C9470111E
:1024D0000EF4E095E7FB0C946A11E92F0E9492112B
:1024E00058F3BA17620773078407950720F079F449
:1024F000A6F50C94B4110EF4E0950B2EBA2FA02D76
:102500000B01B90190010C01CA01A0011124FF27A0
:10251000591B99F0593F50F4503E68F11A16F0409B
:10252000A22F232F342F4427585FF3CF469537959A
:102530002795A795F0405395C9F77EF41F16BA0B5F
:10254000620B730B840BBAF09150A1F0FF0FBB1F0D
:10255000661F771F881FC2F70EC0BA0F621F731F56
:10256000841F48F4879577956795B795F7959E3FB3
:1025700008F0B0CF9395880F08F09927EE0F979544
:10258000879508950E94D6120C9481110E947A11A9
:1025900058F00E94731140F029F45F3F29F00C9429
:1025A0006A1151110C94B5110C9470110E94921182
:1025B00068F39923B1F3552391F3951B550BBB2772
:1025C000AA2762177307840738F09F5F5F4F220FB7
:1025D000331F441FAA1FA9F335D00E2E3AF0E0E8AE
:1025E00032D091505040E695001CCAF72BD0FE2FF8
:1025F00029D0660F771F881FBB1F2617370748078C
:10260000AB07B0E809F0BB0B802DBF01FF27935843
:102610005F4F3AF09E3F510578F00C946A110C948C
:10262000B5115F3FE4F3983ED4F3869577956795AF
:10263000B795F7959F5FC9F7880F911D9695879578
:1026400097F90895E1E0660F771F881FBB1F621797
:1026500073078407BA0720F0621B730B840BBA0B55
:10266000EE1F88F7E09508950E949A1188F09F5711
:1026700098F0B92F9927B751B0F0E1F0660F771FA6
:10268000881F991F1AF0BA95C9F714C0B13091F09C
:102690000E94B411B1E008950C94B411672F782F03
:1026A0008827B85F39F0B93FCCF386957795679561
:1026B000B395D9F73EF490958095709561957F4FCD
:1026C0008F4F9F4F08950E94D91008F48FEF0895FF
:1026D0000E94D910880B990B0895991B79E004C0CA
:1026E000991F961708F0961B881F7A95C9F7809551
:1026F000089597FB072E16F4009407D077FD09D0B4
:102700000E948D1307FC05D03EF4909581959F4F54
:102710000895709561957F4F0895AA1BBB1B51E1E9
:1027200007C0AA1FBB1FA617B70710F0A61BB70B41
:10273000881F991F5A95A9F780959095BC01CD01E6
:102740000895EE0FFF1F0590F491E02D09940F936B
:102750001F93CF93DF938230910510F482E090E0D5
:10276000E091CA02F091CB0230E020E0B0E0A0E0BE
:10277000309799F42115310509F44AC0281B390B0B
:1027800024303105D8F58A819B816115710589F165
:10279000FB0193838283FE0111C04081518102813C
:1027A000138148175907E0F04817590799F4109713
:1027B00061F012960C93129713961C933296CF01E8
:1027C000DF91CF911F910F9108950093CA0210934A
:1027D000CB02F4CF2115310551F04217530738F0E1
:1027E000A901DB019A01BD01DF01F801C1CFEF01B1
:1027F000F9CF9093CB028093CA02CDCFFE01E20FB6
:10280000F31F819391932250310939832883D7CFC5
:102810002091C8023091C902232B41F42091040178
:10282000309105013093C9022093C8022091020122
:10283000309103012115310541F42DB73EB7409188
:10284000060150910701241B350BE091C802F0915D
:10285000C902E217F307A0F42E1B3F0B2817390714
:1028600078F0AC014E5F5F4F2417350748F04E0FEC
:102870005F1F5093C9024093C802819391939FCFE9
:10288000F0E0E0E09CCFCF93DF930097E9F0FC010C
:10289000329713821282A091CA02B091CB02ED014D
:1028A00030E020E01097A1F420813181820F931F46
:1028B0002091C8023091C9022817390709F061C078
:1028C000F093C902E093C802DF91CF910895EA0125
:1028D000CE17DF07E8F54A815B819E01411551055E
:1028E000B1F7E901FB83EA8349915991C40FD51FE0
:1028F000EC17FD0761F4808191810296840F951F8A
:10290000E90199838883828193819B838A83F0E0A4
:10291000E0E012968D919C9113970097B9F52D9157
:102920003C911197CD010296820F931F2091C8020E
:102930003091C9022817390739F6309751F51092AE
:10294000CB021092CA02B093C902A093C802BCCFB6
:10295000D383C28340815181840F951FC817D90743
:1029600061F44E5F5F4F88819981480F591F5183F1
:1029700040838A819B81938382832115310509F0ED
:10298000B0CFF093CB02E093CA029ECFFD01DC01F1
:10299000C0CF13821282D7CFB0E0A0E0E2EDF4E125
:1029A0000C94EF118C01009751F4CB010E94A713F6
:1029B0008C01C801CDB7DEB7E0E10C940B12FC012D
:1029C000E60FF71F9C0122503109E217F30708F4C4
:1029D0009DC0D901CD91DC911197C617D70798F00A
:1029E000C530D10530F3CE0104978617970708F359
:1029F000C61BD70B2297C193D1936D937C93CF01C4
:102A00000E944314D6CF5B01AC1ABD0A4C018C0E58
:102A10009D1EA091CA02B091CB02512C412CF12CE9
:102A2000E12C109731F58091C8029091C902881568
:102A3000990509F05CC04616570608F058C0809109
:102A4000020190910301009741F48DB79EB7409128
:102A5000060150910701841B950BE817F90708F050
:102A600055C0F093C902E093C802F90171836083F5
:102A7000A0CF8D919C91119712966C9012971396FE
:102A80007C901397A815B90559F56C0142E0C40E66
:102A9000D11CCA14DB0420F1AC014A195B09DA012C
:102AA0001296159780F06282738251834083D90118
:102AB0006D937C93E114F10471F0D7011396FC93AC
:102AC000EE93129776CF22968C0F9D1FF90191837A
:102AD0008083F301EFCFF093CB02E093CA0269CF7A
:102AE0004816590608F42C017D01D3019ACFCB0179
:102AF0000E94A7137C01009749F0AE01B8010E9423
:102B00008915C8010E944314870153CF10E000E0EB
:102B100050CFFB01DC0102C001900D9241505040AA
:102B2000D8F70895FB01DC0101900D920020E1F738
:102B3000089510E0CFEDD0E004C0FE010E94A11383
:102B40002196C03ED107C9F7F894FFCF5A00000084
:102B5000CC0280000000000026028601B30173024F
:102B6000E401C201D601000000006D0586012804C1
:102B70002704000000009203860128049103EE035D
:102B8000060479030D0A006E616E00696E66006FBF
:102B9000766600763D2000566F6C746167653D2057
:102BA0000063757272656E74203D004375727265C4
:082BB0006E743D20002C0000B2
:107E0000112484B714BE81FFF0D085E080938100F7
:107E100082E08093C00088E18093C10086E0809377
:107E2000C20080E18093C4008EE0C9D0259A86E02C
:107E300020E33CEF91E0309385002093840096BBD3
:107E4000B09BFECF1D9AA8958150A9F7CC24DD24C4
:107E500088248394B5E0AB2EA1E19A2EF3E0BF2EE7
:107E6000A2D0813461F49FD0082FAFD0023811F036
:107E7000013811F484E001C083E08DD089C08234E0
:107E800011F484E103C0853419F485E0A6D080C0E4
:107E9000853579F488D0E82EFF2485D0082F10E0AE
:107EA000102F00270E291F29000F111F8ED06801E7
:107EB0006FC0863521F484E090D080E0DECF843638
:107EC00009F040C070D06FD0082F6DD080E0C81688
:107ED00080E7D80618F4F601B7BEE895C0E0D1E017
:107EE00062D089930C17E1F7F0E0CF16F0E7DF06D8
:107EF00018F0F601B7BEE89568D007B600FCFDCFD4
:107F0000A601A0E0B1E02C9130E011968C91119780
:107F100090E0982F8827822B932B1296FA010C0160
:107F200087BEE89511244E5F5F4FF1E0A038BF0790
:107F300051F7F601A7BEE89507B600FCFDCF97BE46
:107F4000E89526C08437B1F42ED02DD0F82E2BD052
:107F50003CD0F601EF2C8F010F5F1F4F84911BD097
:107F6000EA94F801C1F70894C11CD11CFA94CF0C13
:107F7000D11C0EC0853739F428D08EE10CD085E9AC
:107F80000AD08FE07ACF813511F488E018D01DD067
:107F900080E101D065CF982F8091C00085FFFCCF94
:107FA0009093C60008958091C00087FFFCCF809118
:107FB000C00084FD01C0A8958091C6000895E0E648
:107FC000F0E098E1908380830895EDDF803219F02E
:107FD00088E0F5DFFFCF84E1DECF1F93182FE3DFCA
:107FE0001150E9F7F2DF1F91089580E0E8DFEE27F6
:047FF000FF270994CA
:027FFE00040479
:00000001FF
